:020000041000EA
:1000000000B5324B212058609868022188439860DF
:10001000D860186158612E4B002199600221596106
:100020000121F02299502B49196001219960352056
:1000300000F044F80222904214D00621196600F024
:1000400034F8196E01211966002018661A6600F04E
:100050002CF8196E196E196E052000F02FF8012189
:100060000842F9D1002199601B49196000215960AB
:100070001A491B48016001219960EB211966A021F2
:10008000196600F012F800219960164914480160C1
:100090000121996001BC002800D000471248134993
:1000A000086003C880F30888084703B5996A0420EC
:1000B0000142FBD001200142F8D103BD02B5186610
:1000C0001866FFF7F2FF186E186E02BD00000240BE
:1000D000000000180000070000035F00212200005C
:1000E000F4000018222000A00001001008ED00E03C
:1000F00000000000000000000000000074B24E7A12
:1001000000200420F7010010C3010010C5010010F9
:10011000C1010010C1010010C1010010C101001097
:10012000C1010010C1010010C1010010C701001081
:10013000C1010010C1010010C9010010CB01001065
:10014000CD010010CD010010CD010010CD01001037
:10015000CD010010CD010010CD010010CD01001027
:10016000CD010010CD010010CD010010CD01001017
:10017000CD010010CD010010CD010010CD01001007
:10018000CD010010CD010010CD010010CD010010F7
:10019000CD010010CD010010CD010010CD010010E7
:1001A000CD010010CD010010CD010010CD010010D7
:1001B000CD010010CD010010CD010010CD010010C7
:1001C00000BE00BE00BE00BE00BE00BEEFF3058054
:1001D000103800BEF2EB8871B8DC0710E0DC0710C5
:1001E0003402001090A31AE700201F49086006C8D7
:1001F00081F3088810471D48006800282FD10DA4FE
:100200000ECC002902D000F012F8F9E71849194A7B
:10021000002000E001C19142FCD1174988471749ED
:1002200088471749884700BEFDE701C901C29A42C5
:10023000FBD37047E0DC0710C0000020041800204A
:1002400024F40710000004200000042024F4071008
:10025000001004200010042000000000704709482E
:100260000AF016FB0047000008ED00E0000000D097
:100270002818002054330220890A03103D51001031
:10028000490A03105756000006005250ABB36053A2
:10029000742D041006005250861C0302842D041095
:1002A000060052505422A29D902D04100500525079
:1002B000DE65F46824F40710F8B5C0460448054B21
:1002C00010B5834203D0044B002B00D0984710BDDB
:1002D0000418002004180020000000000648074908
:1002E000091A8B10C90FC91810B5491003D0044B57
:1002F000002B00D0984710BD0418002004180020DF
:100300000000000010B5074C2378002B09D1FFF73F
:10031000D5FF054B002B02D0044800E000BF0123AD
:10032000237010BD801900200000000078BF03106A
:10033000054B10B5002B03D00449054800E000BF71
:10034000FFF7CCFF10BDC04600000000841900205C
:1003500078BF0310084B5B6A994209D8064A926A33
:10036000824207D2994201D0012002E0002000E041
:10037000002070470120FCE70040054010B500292F
:1003800005D0FA229200002331F0F0FD10BDFA21D1
:10039000890031F0ADFDF9E730B5EFF3108C72B69E
:1003A000064C2378064ADD00A854521951600133E7
:1003B0007F22134023708CF3108830BD2533022038
:1003C000F426002010B582B004000AE00A4B9B69B5
:1003D0009B06FBD41078084B1860013101320029CC
:1003E000F4D02378002B05D001346A46073213700D
:1003F0000021F4E702B010BD00400340F0B5C6464E
:1004000000B582B006000C0017004A4A002331F004
:1004100095FD01900500474A00233000210031F08E
:100420008DFD141E00DA77E0E1210901200031F092
:1004300037FDF860E1210901200031F031FD0800AD
:100440003C2131F02DFD38613C21200031F028FDA8
:100450007961394BEE1863D43849300031F020FD12
:100460000500EC006419240164192401641BA30134
:10047000E41AA4193249200031F012FD061931495D
:10048000200031F00DFD36182F49200031F008FD15
:10049000B04680446E21FF31404631F001FDAE0090
:1004A0007619B300F61836013618C3001B18DB00A6
:1004B0001818850045192549404631F0F1FC2D18E2
:1004C0002349404631F0ECFC2D18641BA3009846EC
:1004D000A0444346981C992131F0E2FC0500C0007D
:1004E00040190301C01802300521494231F0D8FCFF
:1004F00000190130BF23DB00984518DA0335EB0FF4
:1005000002220021AA424B419B193B607D60B860EA
:1005100002B080BCB846F0BD064BD418013D83E75D
:100520000C4BE818054931F0BBFC050099E7093D83
:10053000E5E7C046805101006CFA0A00B13A0200BA
:100540004CFAFFFFAC8E000050C5FDFFB405000063
:100550006C71FFFFBCBF0800002903D00B68002BA3
:1005600000D01360014B01221A707047273302201C
:1005700010B504005820FFF70FFF002C04D0012312
:10058000637200232372236010BD002802D0002371
:100590000360436070470000062800D070470907D9
:1005A000FCD5024B01221A70F8E7C0463B3302200B
:1005B00010B5002B02DB0260436010BD024B034A02
:1005C00003483F2130F044FA78BF031094BF031072
:1005D000CCBF031010B504000BF020FD02000B008F
:1005E0002000FFF7E5FF200010BD000000B583B03C
:1005F0006846FFF7EFFF00980199FFF7BFFE084B31
:100600001B68C01AFA21890031F072FC0200002335
:100610000449086849688018594103B000BDC046C4
:10062000F42A0020080F002030B593B00400FFF733
:10063000DDFF0CAAFFF7E2FE9023E25806922200AB
:1006400090325168079191680891D16809911169B8
:100650000A9152690B92A823E2580092A83462686A
:100660000192A2680292E26803922269049262698E
:1006700005920022002301E01B1B0132052A26DC23
:10068000002B0DD193000CA9585806A959580123E5
:10069000884200DC002301248842EDDB0024EBE7E4
:1006A0000021002201E0521B0131052912DC002A41
:1006B00010D18A000CA814586846105801228442B0
:1006C00000DC002201258442EDDB0025EBE7002160
:1006D0000022EAE7002B04DB002A05DC002013B02F
:1006E00030BD80208000FAE70120F8E710B51C003B
:1006F000064B1B78002B01D1002010BD0800FFF72E
:1007000093FF236803432360F6E7C04624330220A7
:1007100070B5060014001D00FA2292000023049810
:10072000002131F07DFF02000B0012196B41002BFC
:1007300004DB3000FFF73CFF300070BD0122524265
:10074000004BF6E7FFFFFF7F30B585B004000D00DA
:1007500002A8FFF73FFF029A039B00952000FFF7D6
:10076000D7FF200005B030BD10B5002A04D1002904
:1007700002D04160100010BD0023436000680EF0FD
:100780007DF806204042F6E7F0B5D6464F4646468D
:10079000C0B582B000AF0400A523DB01C35A002B13
:1007A00008D100263000BD4602B0E0BCBA46B146D2
:1007B000A846F0BD00680EF0C2F8061E01D1002662
:1007C000F0E720680EF0CCF81F284ED8E946A523A4
:1007D000DB01E35AB34203D2A523DB01E65AB6B2EA
:1007E000F31DDB08DB006A46D31A9D466946204BA1
:1007F000E55AADB2023BE35A9BB29846002205E0AF
:1008000000254346013B9BB29846013296420CDDDF
:100810006B1C9BB265191748844665442878885438
:1008200015488342ECD01D00EBE72068012332001D
:100830000EF04CF80200060053425341DBB2A372A3
:1008400020680EF057F8002E0CD1094BE552EFF35B
:10085000108372B6A522D2014146A15283F31088BB
:10086000CD469FE7054B1E70FAE700269AE7C04683
:1008700082520000344E00004C040000403302203D
:1008800010B5114B1B78002B12D0D02212068021FC
:1008900049005161012253400B4A1370837A002BA7
:1008A0000FD1A523DB01C35A002B07D1002009E09B
:1008B000D0221206802149009161EBE7FFF764FF27
:1008C00000E0002010BDC0462B33022010B5A52348
:1008D000DB01C35A002B03D100238372002010BD1B
:1008E000FFF752FFFBE7000010B50E4B1A680E4BE6
:1008F0001B689A4206DA0B4A1368591C11600B4AAE
:10090000D05C10BD80210948490004F0E1FE064B8F
:100910001860044B00221A600028ECDC01204042E1
:10092000EFE7C046FC2B0020F82B0020F82A00201F
:10093000F0B5DE4657464E464546E0B59BB00190C1
:100940008B46002398460026002721E002AB0022B8
:100950005A55002C2BDB002E06D12A4902A834F070
:1009600059FD002814D001364346002B08D17B19CD
:100970009A460123534499465B4521D30123984667
:10098000214902A834F046FD002825D1002C32DB95
:100990000025FFF7A9FF041ED8DB0A28D6D00D28B2
:1009A000F7D05E2DF5D802AB5C550135F1E7002D8F
:1009B000D1D1002E02D00220404215E0002013E0E9
:1009C000019AD0192A0002A931F0BAFE0A23019A2D
:1009D000514653544F46D3E74346002B0ED1019B5B
:1009E000DB1900221A7038001BB0F0BCBB46B246BF
:1009F000A946A046F0BD02204042F5E70120404252
:100A0000F2E7C0462CC0031040C00310F0B5D7B0C9
:100A10000D0016000023136004F030FE00283ED0C5
:100A2000244B00221A60244B1A6002E001A82AF02D
:100A3000E0FDC02121480901FFF77AFF0400431CB3
:100A4000F7D0002829DD01AF38002AF0CBFD0134B2
:100A50001A49220038002BF059F80028E6D1139AE1
:100A6000EB6B9A42E2D11498296C36F0F1FB002826
:100A7000DCD1AA214900013031F046FE051E09D023
:100A80002AF0B0FD0D49220028002BF03FF8002885
:100A900008D1356001A82AF0ACFD04F02FFE00203B
:100AA00057B0F0BD28002AF0A4FD280031F036FE32
:100AB000F0E7C046FC2B0020F82B0020784E0020E9
:100AC00030B58BB018E0104C2378104ADB009B5CEB
:100AD000DBB22178C900521851680D4A02AD00916D
:100AE0002021280031F09CF92800FFF76BFC2378C7
:100AF00001337F2213402370034B1B78054A127881
:100B00009A42E0D10BB030BD26330220F4260020FB
:100B100050C003102533022070B584B005000C00CE
:100B2000FFF7CEFF084A01AE2B000A21300031F05A
:100B300077F93000FFF746FC2000FFF743FC03483D
:100B4000FFF740FC04B070BD60C00310F0C7031095
:100B500070B50500002902D0164B00221A70154B03
:100B60001A78154B6D215B5C013B9A4214DB1348EC
:100B700031F0F0FF002004F01DFB0028FAD0002027
:100B800004F026FB04000E4831F0E4FF094B00227C
:100B90001A70032C01D108E020240A48290031F002
:100BA000D9FF044A137801331370033C63425C415C
:100BB000E0B270BD283302201C8601206CC00310F7
:100BC00074C0031004C3031010B5094B1B78002B2D
:100BD00000D010BD064B01221A7000201BF056FAFF
:100BE000044900201BF0ACFA1BF0ECF9F1E7C04619
:100BF0002C33022080C00310F0B58BB00D1E06D040
:100C00008B7F002B03D0224A1668172E02DD0020AE
:100C10000BB0F0BD1C1C202B00D92024E4B201AF86
:100C2000220029001F31380031F08AFD00233B5596
:100C30000024A64215DD60010019164BC01801A959
:100C400036F0D4FF002801D00134F2E75A23EA5EDF
:100C5000114B6100CB5E9A42D9DD0F4B6400E2522A
:100C6000D5E7700180190B4BC01801A936F00AFFB7
:100C70005A23E95E084B7200D1525823EB5C5A426A
:100C80005341064A9355024B01361E60BFE7C046EA
:100C9000002C0020042C0020342F00201C2F0020CA
:100CA00010B5074B1B78002B03D1064B1B78002B8C
:100CB00000D110BD1BF0C0F9014B01221A70F8E7FA
:100CC0002A3302202433022000B583B0020000231F
:100CD00008490A604B606846FFF77CFC0098019960
:100CE000FFF74CFB044B1860044B01221A7003B051
:100CF00000BDC046080F0020F42A00202433022043
:100D000010B50C000E4B00221A700A600D4A0B0041
:100D10000CF0DEFA431D03D000280DD1013010BDC8
:100D2000074B1A78D0B2002AFAD0002C06D02368DC
:100D3000002BF4D10020F2E70020F0E70020EEE7DE
:100D4000273302205905001000B583B06846FFF72D
:100D500041FC00980199FFF711FB03B000BD00288A
:100D600008D00368002B07D09B68002B06D0007AC0
:100D7000C0B270470020FCE70020FAE70020F8E747
:100D800070B5040019F000FF002C29D00023237255
:100D90002068002826D000210DF020FD20680021C9
:100DA0000DF009FD2068002200210DF008FD2068EB
:100DB00000210DF0FCFC206800210DF0F0FC206803
:100DC0000DF05CFD051E05D10023236019F0E6FE41
:100DD000280070BD20680DF046FD0D256D42F3E73B
:100DE0000025F3E70025F1E730B583B005001400D6
:100DF00011004320FFF7D0FA01236B726342634175
:100E0000DBB22B72002C02D1002003B030BD2800D1
:100E1000FFF7B6FFF8E70000F8B5141E06D01389F7
:100E2000002B4FD000284DD016001DE0FFF7A8FF83
:100E30004CE0294A835A01339BB2835201317389B2
:100E40008B4210DD73685F5C244A835A5D1CADB22F
:100E50008552C318DF72825A214B9A42E9D11F4B47
:100E60000022C252E5E73668002E01D00021E6E7F5
:100E7000194BC25A1A4B9A4204D9D0231B0680221E
:100E800092005A61144BC35A164A12889A4204D2ED
:100E9000114BC35A9BB2134A13800F4BC25A124BC9
:100EA0009A4214D9114A835A21895B189BB2835202
:100EB000835A0F4A12889A4204D20C4BC35A9BB2EF
:100EC0000B4A138020000DF06DF80020F8BD218939
:100ED00000680DF087FCF5E72C4E0000304E000056
:100EE000204E000014330220B4050000324E0000F2
:100EF00016330220F0B5CE4600B584B004000D00D4
:100F000001921F1E1FD04C2629003000FFF704FE5F
:100F100001993000FFF740FA231D99461900280077
:100F2000FFF7EEFE061E00D1AEE0002F14D0574BA7
:100F30001B68002B09D0554B1B68002B57D0544A17
:100F4000029203930CE04426DEE7002100201AF011
:100F5000DBFE4E4B1860EEE74E4B029300220392ED
:100F6000002102A80DF00CFC206000283FD0002FCB
:100F70003FD1206821000DF012FC474920680DF098
:100F800016FC464920680DF016FC454920680222EF
:100F90000DF015FC434920680DF020FC20680DF091
:100FA000F0FC00230022404963524049635240490B
:100FB000635240496352A521C90163523E496352BD
:100FC0003E49635222726272A27219F0DDFD3C4BFF
:100FD0006A469288206849460DF023FC050019F006
:100FE000DDFD002D37D000232360002045E00020E8
:100FF00043E01AF041FE071EBBD029002EF078FF17
:101000003F68002FB5D02F4BA122D2009B5C002B54
:1010100003D004F0CBFA002804D1002138002EF0D0
:101020004CFFA6E72849002238002EF05AFF274936
:10103000002238002EF043FF022138002EF03DFF41
:1010400097E7002004F0B6F8002802D1350000E050
:101050000025002D0DD02368002BF9D09B68002BB4
:1010600005D0637ADDB2002BEBD00025F1E7002537
:10107000EFE7237A002B04D0200004B080BCB946EF
:10108000F0BD23600020F8E70020F6E7642F002081
:1010900043EC001039F20010190E0010CD080010BA
:1010A00081080010710500102C4E00002E4E00002B
:1010B000304E0000324E0000825200008452000088
:1010C000E90D00101C8601200D0A0010ED0600102D
:1010D00030B583B004000D0068461A4B009300231E
:1010E00001932E210DF04CFB2060002828D0AAB2DD
:1010F00000210DF082FB002802D0002003B030BD9B
:10110000002363602068002201210DF09EFB00286F
:101110000DD0206021000DF042FB0B4920680DF03E
:1011200042FB0A4920680DF059FB0120E6E72068E0
:10113000002803D00DF0A2FB002323600020DDE790
:101140000020DBE739F20010690700108B05001062
:10115000F8B504000F001600002800D173E0036802
:10116000002B00D171E09B68002B00D16FE0A5231C
:10117000DB01C35A9B18374A93421CDD037A002BCC
:1011800019D0D0231B064C3A5A6102E00023002BF1
:101190000CD0A523DB01E35A9B192E4A9342F5DDBF
:1011A000227AD3B2002AF2D10023F0E7D0231B0623
:1011B0008022D2009A6119F0E7FC00250CE0EFF3E1
:1011C000108172B6A522D201A35A01339BB2A35259
:1011D00081F310880135ADB2B54212D2785D1E4A56
:1011E000A35A591C89B2A152E3181C498C46634486
:1011F0001870A25A174B9A42E1D1174B0022E252C3
:10120000DDE7A523DB01E25A154B1B889A4204D97E
:10121000A523DB01E25A124B1A80A523DB01E35A16
:10122000002B08D02368002B05D09B68002B02D030
:10123000A37A002B03D019F0B1FC300004E02000A9
:10124000FFF7A2FAF7E70020F8BD0020FCE7002036
:10125000FAE7C0464C04000084520000344E0000FF
:101260001833022070B505000C00080033F0C2FDF1
:1012700082B221002800FFF76BFF70BD00B583B07C
:101280006B46D971073301221900FFF761FF03B0E4
:1012900000BD0000002803D0024BC05A80B2704746
:1012A0000020FCE72C4E000070B504000D00002863
:1012B00043D000290CDC0025214BE35A002B0BD135
:1012C000FFF742FDA842F7D301256D42280070BD0B
:1012D000FFF73AFD4519EFE71A4AA35A591C89B29C
:1012E000A152E318DD7AEDB2A25A174B9A4220D0F0
:1012F000EFF3108172B6124AA35A013B9BB2A3527C
:1013000081F31088A35A002BE0D1104BE35A002B35
:10131000DCD02368002BD9D019F036FC0B4EA15B32
:1013200089B220680DF05EFA0023A35319F036FC51
:10133000CCE7044B0022E252DAE701256D42C5E713
:101340002C4E00002E4E0000204E0000324E0000B9
:10135000F0B5D6464F4680B583B006008946019267
:101360001C00FFF7F1FCFA239B00C718002C05D1E5
:10137000200003B0C0BCBA46B146F0BD019D1AE0E2
:10138000012149423000FFF78FFF83B299451CD0FD
:101390006B1C9A462870013CA4B2FFF7D5FCFA23D7
:1013A0009B00C71855460AE0FFF7CEFCB8420AD2A8
:1013B0000123002B09D0074BF35A002BE0D1002C5E
:1013C000F2D10023F5E70023F3E7019BEC1AA4B266
:1013D000CEE7C0462C4E0000002805D17047002300
:1013E00000E00023002BF9D00368002BF7D0027A2D
:1013F000D3B2002AF5D0A522D201825A002AF1D117
:101400000023EFE74068431E9841C0B270470000D8
:1014100010B50C0043680B6000234360154A8B52E3
:10142000154A8B52154A8B52154A8B52A522D2016E
:101430008B52144A8B52144A8B528B7208680DF0EF
:10144000AEF9124920680DF0C9F9114920680DF074
:10145000B2F91049206802220DF0B1F90E49206856
:101460000DF0A5F920680DF08CFA01232372637248
:10147000200010BD2C4E00002E4E0000304E00000B
:10148000324E0000825200008452000071050010AC
:10149000CD08001081080010190E001010B5024987
:1014A000002003F0DFFE10BDF0C703100148024B1F
:1014B000C01A7047000004205433022010B58AB0CF
:1014C000684635F021FAFFF7F1FF079BC01A0AB012
:1014D00010BD00000148024BC01A704724F40710E9
:1014E0000000001010B5FFF7F5FF80239B03181ACA
:1014F00010BD0000024B1878C0B200221A7070476D
:101500003B330220F8B5494B1B78002B09D08026CD
:10151000002003F04FFE864200D306000024444D15
:1015200008E080267600F3E7002003F051FE2870E3
:1015300001340135A642F7D8FFF706FC3D4B1B6886
:10154000C01A3D4B1B78002B06D0FA239B00984213
:1015500002D3394B00221A70384B6E229B56002B57
:1015600007DB354B1B78002B31D1FA239B009842C7
:101570002FD2314B00221A70FFF7E6FB2D4B18607B
:101580002A4B1B78002B46D0741E2DE02A4A137874
:101590000133DBB21370032B10D0294B00221A60E9
:1015A0000134A642E8D9224B1A5D244B6E215B5CC4
:1015B0009A42EBD0204B00221A70F1E7FFF7C4FBF0
:1015C000FA239B009C4660441D4B1860E8E700240A
:1015D000E7E70024E5E7601C321B154BE118C01853
:1015E00034F0EAF80136013C002C14DB104B1B5D93
:1015F000FF2BF0D00D2BF6D10C4B1B78012BF2D129
:10160000651C321B0A4FE119E81934F0D5F80023A4
:101610007B550136E7E7B2B205490A4B1868FFF778
:1016200097FD094A13681B181360F8BD4A3302205E
:10163000FC310220682F00203C3302201C86012050
:1016400080710020BC8C0120CC600020F0B5C64623
:1016500000B5EEB00121CA4B18684942FFF724FEDD
:101660000400C84A136801331360C74B1B78002B72
:1016700001D0FF280BD0C54B1B780D2B00D1F0E11A
:10168000C24B1C7020006EB080BCB846F0BDFA2181
:10169000BB4B18688900FFF707FE0400B94A1368BE
:1016A00001331360F22800D1D2E1F32827D0F628C5
:1016B00033D0FF28DFD0C2B2D31CDBB2012B05D957
:1016C000FB2A03D0FC2A01D0FA2A09D1FA21AC4B1B
:1016D00018688900FFF7E8FDAA4A13680133136010
:1016E000C5B2FF232340FB2B00D110E1FD2B00D11D
:1016F00091E0FA2B00D12CE101246442BBE70121E7
:10170000002003F0D2FD962040000AF0F6FB0021F5
:10171000002003F0CAFDF43CADE7994E32689C4BC3
:10172000D35A9BB298469B49515A9B48105AA524BC
:10173000E401145B994D575B994D525B9446994A6D
:1017400006AD6346049303970294019000914346CB
:10175000A021280030F064FB30682900FFF782FDEB
:10176000914C23681B182360904B1B889BB2904AB6
:101770001188904A9048008801900091A02128008B
:1017800030F04EFB30682900FFF76CFD23681B1812
:1017900023608A4B1B785BB2002B0CD1D0231B0635
:1017A0001B699B0519D4D0231B061B695B0523D439
:1017B000012464425FE7824AA021280030F030FB18
:1017C0007E4B00221A706E4B18682900FFF74AFD05
:1017D000754A13681B181360E0E7D0231B068022AC
:1017E00092009A617749664B1868FFF73BFD6E4A95
:1017F00013681B181360D6E7D0231B068022D20083
:101800009A6171495E4B1868FFF72CFD664A1368B0
:101810001B181360CCE7FF230340012B3BDD202B7B
:1018200062DC032B60DBD91E01228A4067490A4231
:1018300031D167490A4257D02EAAFF211170FB20EF
:1018400050709570D170053911715571172B3FD0BB
:101850001F2B47D11300002191715E4A8F38105C15
:10186000D87119726D31525C5A720A23591C89B2AF
:101870002EA8FF22C25402339AB2F0234354404BA5
:1018800018682EA9FFF764FC474A13681B181360F9
:1018900001246442EFE6504B1B78002B05D1032D49
:1018A00000D1D8E0012D00D1D8E02EABFF221A7074
:1018B000043A5A709D70324B1868F83A2EA9FFF717
:1018C00047FC394A13681B18136001246442D2E6AE
:1018D000424B434AFA21BE20684430F0A1FA831DEE
:1018E0009BB2C3E70623C1E72EABFF221A70033A6F
:1018F0005A709D70224B1868F93A2EA9FFF728FC00
:10190000294A13681B18136001246442B3E6FF23BD
:101910002EAA137003401F3B082B16D81E22FF323D
:10192000DA40D20711D52EABFE225A702EAB9D7035
:10193000134B186803222EA9FFF70AFC1A4A1368F2
:101940001B1813600124644295E62EABFD225A70E9
:10195000ECE7FF240440182C06D0202C04D00124EE
:10196000644288E6F0283DD0054B18680A21FFF74D
:101970009BFC431CF6D0034A136801331360F1E764
:10198000BC8C0120C86000204A3302202933022089
:101990002C4E00002E4E0000304E000082520000FF
:1019A0008452000090C00310CC6000201633022047
:1019B00014330220D8C00310183302204033022011
:1019C0000CC1031024C1031034C1031001002020F6
:1019D000000010101C8601202F330220CE8A012027
:1019E00044C103102EABFF221A70053A5A709D7045
:1019F0000022DA70182C17D0202C1ED00423591C7A
:101A000089B22EA8FF22C25402339AB2F023435463
:101A10001A4B18682EA9FFF79BFB194A13681B186D
:101A200013600124644226E6164B174AFC212FA8B6
:101A300030F0F6F9031D9BB2E1E7144B5B6E144ADC
:101A40000093FC212FA830F0EBF9031D9BB2D6E7E1
:101A5000012464420FE6012464420CE6012464423E
:101A600009E6E3B2002B00D00AE60A4B1B78012BF3
:101A700000D005E60124644202E6C046BC8C012089
:101A8000CC6000207D8A012044C103101C86012007
:101A900048C103104A330220F8B5FFF755F9264B29
:101AA0001B68002B43D0C01AFA21890030F020FABD
:101AB00005003C2130F0F4F904003C2130F0F0F94D
:101AC00007003C21280030F0EBF90D003C212000FC
:101AD00030F0E6F90E000A21380030F0E1F930303C
:101AE000164C20700A21380030F0DAF9303161707C
:101AF0003A27A7700A21300030F0D2F93030E07078
:101B00000A21300030F0CCF93031217167710A219F
:101B1000280030F0C5F93030A0710A21280030F0DB
:101B2000BFF93031E171002323722000F8BD002598
:101B300000260027CFE7C046B46200206C2F0020AB
:101B400010B5040001005220FEF726FC414B424A2A
:101B50009B5C002B0CD0042C00D170E0032C01D036
:101B6000052C04D13B4B3D4A9A5C3D4B1A7010BD8D
:101B7000FFF794FC374B3B4A9B5C002B08D1062CAB
:101B800004D03948210030F0E5FFE7E7043CF8E7EE
:101B9000042C3DD014DC012C2BD0032C48D133492C
:101BA000002003F05FFB2B4B314A9B5C002B3CD0A9
:101BB000FFF772FF01002F4B180030F0CBFF34E02D
:101BC000062C35D12C49002003F04CFB214B284A30
:101BD0009B5C002B29D0294B1B68186800210CF056
:101BE00016FF15F039F80100254B180030F0B2FF50
:101BF0001BE02449002003F035FB164B1C4A9B5C7C
:101C0000002B12D0134B596E1F4830F0A3FF0CE08D
:101C10001E49002003F026FB1D4B00221A701D48B0
:101C20000232FF32002130F085FDFFF737FC95E7E7
:101C3000194BA200D158002003F014FBF5E7144B18
:101C400000221A7013480232FF32002130F072FD78
:101C500084E7C0461C860120060500000F04000032
:101C60004A3302200505000050C103101C3804103F
:101C70000405000058C1031028380410BC8C012052
:101C800028C50310303804105CC403101438041045
:101C9000B8750020B45E0020EC37041070B50A4B14
:101CA00000241C70094D2868FFF76AF82C60032097
:101CB000FFF746FF0121042003F056FA044B1C6095
:101CC000044B1C7070BDC0464D330220BC8C0120FB
:101CD000B46200203C33022010B57A4B7A4A9B5AFA
:101CE000002B3ED07948FFF78DFB002839D0784B88
:101CF0001B78002B09D1734BDA2292009B5C002BDE
:101D000039D1744A1278032A35D90121072003F00A
:101D10002BFA71496D48FFF77BFB0400694BDB220E
:101D200092009B5C002B22D06C49FFF79BFA6C4918
:101D30002000FFF797FAFFF7AFFE01002000FFF742
:101D400091FA68492000FFF78DFA2000FFF744FB65
:101D50002000FFF715F85F4B00221A70624B1A70D3
:101D600004E0614B1B78002B00D0A1E010BD5F495F
:101D7000FFF778FAE5E7002B03D0564A1278934232
:101D80004ED9594B1B78002B1DD1574B01221A708D
:101D9000504B1A700021072003F0E6F9494BDA2274
:101DA00092009B5C002B03D04A4A1278934202D9DE
:101DB0000220FFF7C5FEFEF7C7FF4D4B9C4660446F
:101DC0004C4B1860D2E7FEF7BFFF4A4B1B689842A6
:101DD000CCD9072003F0CEF900280BD10121073020
:101DE00003F0C2F9FEF7B0FF414B9C466044414B03
:101DF0001860BBE7374A13780133137000210720BE
:101E000003F0B2F92F4BDA2292009B5C002B03D037
:101E1000304A12789342E5D90220FFF791FEE1E7BC
:101E20000121072003F0A0F933492848FFF7F0FA11
:101E3000324B1860234B324A9B5C002B1FD106208B
:101E4000FFF77EFE0021042003F08EF91D4B2D4A82
:101E50009B5C002B1CD02C49284B1868FFF702FA1A
:101E60001B4B03221A70294A00231370284A13704F
:101E7000284A1370FEF768FF274B186076E727495A
:101E80000922FFF765F9264A13681B181360D6E785
:101E9000FA2080000AF031F80D4B02221A70214B13
:101EA00000221A70204B1A700120FFF749FEE1E76B
:101EB0000121072003F058F90B4B00221A70054B43
:101EC0001A7053E71C8601206A030000D0310220FB
:101ED0004D3302204633022048DF0120888901204B
:101EE00060C1031080C103104733022078C1031082
:101EF000DC05000070440120C08C0120BC8C012056
:101F00000F040000BD03000088C10310433302200A
:101F1000423302207C440120B4620020E0370410E8
:101F2000CC6000202F3302203B33022010B501008B
:101F30000200002003F0D9F910BDF8B50600040036
:101F400000E001342578002D04D0280033F0F2FBA6
:101F50000028F6D1002D0FD0200032F04BFF451E97
:101F6000002D09DB6719605D33F0E4FB002803D026
:101F700000233B70013DF3E7B4420CD0200032F067
:101F800039FF002302E0E25CF25401338342FADBC2
:101F9000F61800233370F8BDF8B506000D001400E4
:101FA0001F003A2135F050FA2060002809D0431C68
:101FB000236000230370206835F06EF938602E60CE
:101FC00004E017233B60FAE701342C602C6820788A
:101FD000002805D033F0AEFB0028F5D100E0013435
:101FE0002078002803D033F0A5FB0028F7D0002389
:101FF0002370F8BDF0B5C64600B586B0344830F061
:1020000079FD344C616E344830F0A4FDA11C334896
:1020100030F0A0FD21002331314830F09BFD314BE1
:10202000E118314830F096FD304BE15A304830F03D
:1020300091FDDB239B00E1182E4830F08BFD2E4BE9
:10204000E15C2E4BE25C2E4BE35C2E48255C2E4877
:10205000265C6B20275C2D48205C8446DA208000BB
:10206000205C80466E20245C2948059444460494F4
:102070006446039402970196009530F06BFD254865
:1020800030F038FD002400E00134092C1CDC114B39
:1020900062001219110152189B181A33FF331B7872
:1020A000002BF1D063001B195A181932FF3209496D
:1020B0005218013223011B1968335B180733164885
:1020C000210030F047FDDFE706B080BCB846F0BD28
:1020D00098C103101C860120ACC10310C0C10310BD
:1020E000D4C1031017030000E8C103106A03000005
:1020F00000C2031014C203100E0400000605000005
:102100000505000004050000070500000F0400009D
:1021100028C2031058C2031068C20310F0B5C646A7
:1021200000B5384CA54407A803F0DCF9364830F078
:10213000E1FC07AC2099354830F00CFD34481E21F5
:10214000694430F007FD33483F21694430F002FD17
:1021500031483249694430F0FDFC314BE15A314895
:1021600030F0F8FC3048E2A930F0F4FC2F4BE15C91
:102170002F4BE25C2F4BE35C2F48255C2F48265CFD
:102180006B20275C2E48205C8446DA208000205C8F
:1021900080466E20245C2B48059444460494644693
:1021A000039402970196009530F0D4FC264830F055
:1021B000A1FC002400E00134092C1DDC63001B1984
:1021C0001A019B1807AAD3181A33FF331B78002B68
:1021D000F1D0130062001219110152181932FF32A6
:1021E0009A1801322101091968315B180733174821
:1021F000210030F0AFFCDEE7A523DB009D4480BC6E
:10220000B846F0BDD8FAFFFF74C20310ACC103108A
:10221000C0C10310D4C10310E8C103103303000090
:102220006A03000000C2031088C203100E040000FD
:102230000605000005050000040500000705000074
:102240000F04000028C2031058C2031068C2031014
:1022500010B5444B1868FFF71DF8002814D1FEF79D
:1022600073FD414B1B68C01A404B984204D8404B49
:102270001B78022B00D86AE03E493A4B1868FEF7FB
:10228000F1FFFFF70BFD10BDFFF7E0F904000A288E
:1022900032D01CDC431CE2D008281CD0FF20204098
:1022A00035F024FC0028DAD0334B1B784F2BD6D8DE
:1022B0002C4B18682A21FEF7E1FF2F4A11784B1C9E
:1022C000DBB213702D4A54540021D154C7E70D28B6
:1022D00012D07F28E2D1284B1B78002BBFD0013BC6
:1022E000DBB2254A1370254A0021D15424491D4BE5
:1022F0001868FEF7B7FFB2E722491A4B1868FEF7D5
:10230000B1FF1E49204835F071FC00280ED0184A54
:10231000137801331370194B00221A70164B1A7080
:102320001A49104B1868FEF79DFF98E7184B0222D8
:102330001A70184B00221A70174B1A700120FFF701
:10234000FFFB1649074B1868FEF78CFF87E7054B24
:102350001868FEF704FD002800D094E7FFF79EFC04
:1023600091E7C046BC8C0120B462002060EA000006
:1023700043330220BCC20310423302207C440120BC
:10238000B8C20310F0C70310D98901209CC2031002
:102390004D3302202F3302203B330220ACC2031006
:1023A00070B504001E491F48FFF732F81E4B186035
:1023B0000121072002F0D8FE1C4B00221A701C4B92
:1023C0001A701C4B1C4A9B5C002B1ED10620FFF789
:1023D000B7FBFA20800009F090FDFEF7B5FC174B23
:1023E0001860174B00251D700120FFF7A9FB002185
:1023F000042002F0B9FE134B1D70134B02221A7019
:10240000002002F026FF200070BD1049064B18681E
:102410000922FEF79DFE0E4A13681B181360D5E7CC
:10242000C08C0120D0310220BC8C01204733022017
:10243000463302201C8601200F040000B4620020F5
:102440003B3302202F3302204D330220E0370410AB
:10245000CC600020F0B5C64600B582B00600037817
:10246000312B33D016D8002B03D0302B00D0CDE049
:1024700001366948002117F03DFF3378002B21D049
:102480000121052002F070FEB046404602B080BC3B
:10249000B846F0BD3F2B00D0B8E0431C98465E48DC
:1024A000002117F0F9FA03280AD030215B4830F0F8
:1024B00051FB7378002BE8D10020FFF741FBE4E7E4
:1024C0003121F3E70020FFF73BFBD9E7431C984697
:1024D000534B9B78002B00D186E0514B23229B5C11
:1024E000002B12D04F4C4E4B4F4A9B5C002B04D11B
:1024F0004B4B4E4A9B5C002B09D14D4908002138BB
:10250000220014F01FFD002724E00024EBE74949D6
:10251000494830F01FFBF0E701200021404231F034
:1025200055FB02F029FF20002900FDF713FF0028CA
:10253000F2D03B4B3C4A9B5C002B04D1384B3B4ACE
:102540009B5C002B10D13448002117F0A5FA03281A
:102550000FD00137312F0CDCFA2149006846FEF715
:10256000F3F8009C019DDEE72E21002002F035FEED
:10257000E9E72B4B2C4A9B5C002B04D1284B2B4AC0
:102580009B5C002B09D12448002117F085FA032811
:1025900006D00420FFF7D4FA77E7FEF77FFFF2E7D3
:1025A0000021052002F0E0FD0AF036FEFEF70CFBEC
:1025B0001B4B1D4A9B5C002B04D1194B1B4A9B5C97
:1025C000002B07D17378002B00D05EE70020FFF7C7
:1025D000B7FA5AE7194814F03FFB02001549184BA7
:1025E000180030F0B7FAEDE70D4B0F4A9B5C002B5B
:1025F00004D10B4B0D4A9B5C002B03D10420FFF749
:102600009FFA42E70F4830F075FAF7E70420FFF72A
:1026100097FAB04639E7C046C8620020C8C2031026
:102620001C8601200400400006050000040500008F
:102630003F8601201E860120D0C20310B06B00200F
:10264000E8C203100CC3031070B590B004006B46D1
:102650000EAA0FA9FFF7A0FC0E9B002B08D0714B10
:10266000714A9A5C714B1A70714B00221A709FE08C
:102670000F9E300032F0BEFB072811D00023002B44
:102680004ED031783039674B4A0052181001121879
:102690009B181A33FF331B78002B14D1002540E020
:1026A00031780B00303B092B01D90023E7E70023E9
:1026B000062B04DCF25C914203D10133F8E70123DD
:1026C000DDE70023DBE711001931FF31554BC91855
:1026D000013101AD3222280032F052FB32230022B8
:1026E000EA546B460EAA0FA92800FFF755FCB6E77F
:1026F0006B005B19190159181931FF31494BC91881
:10270000013101AD3222280032F03AFB322300229F
:10271000EA546B460EAA0FA92800FFF73DFC9EE77E
:102720000025092D9BDC2901491968313D4BC91849
:102730000731300034F072F80028D9D00135F0E7C5
:10274000384B3C4A9B5C002B04D1364B3A4A9B5C8D
:10275000002B4AD1FA20C00009F0CFFB002002F084
:1027600029FD002852D1324B1B78009A0F9933482B
:10277000FEF7C0FB324B186000283FD0FEF7E4FAAA
:10278000304B1860304B00221A700120FFF7D8F947
:102790000021042002F0E8FC2C4B02221A702C4B82
:1027A000013A1A7039E001330F93204B00221A705E
:1027B0000F9B1A782D2AF6D00FD8232A07D02B2A60
:1027C000BED101330F93194B02221A70F0E7013387
:1027D0000F93174B01221A70EAE73D2AB0D101335B
:1027E0000F93124B01221A70E2E7009A0F991948D1
:1027F00030F0B0F9002002F02CFDABE70320FFF72A
:102800009FF90121042002F0AFFC06E00320FFF74E
:1028100097F90121042002F0A7FC00232370200077
:1028200010B070BD1C8601200F0400004A33022046
:10283000493302200605000004050000C08C012079
:10284000BC8C0120B46200203B3302204D330220B7
:102850002F33022030C3031030B58FB0040003784B
:102860001A00303A092A0AD8124B51008918080177
:1028700009185B181A33FF331B78002B05D104208D
:10288000FFF75EF920000FB030BD013453009B18F4
:1028900019181931FF31074BC918013101AD322226
:1028A000280032F06DFA32230022EA542800FFF7A4
:1028B000CBFEE7E71C86012070B504000378312BBE
:1028C0000FD93F2B11D1451C144B154A995C154863
:1028D00030F040F96378002B0BD10020FFF730F97E
:1028E00007E0302B07D2002B05D00420FFF728F992
:1028F0002500280070BD313B5A425341074A084920
:1029000053542378002B07D0651C2B78002BF0D173
:102910000020FFF715F9ECE72500F6E71C860120FB
:102920000E0400003CC30310F8B5CE46474680B500
:102930000700444932F06EFD00286BD008300400D7
:1029400001239946BC23FF3398462F21200032F003
:10295000BDFA051E02D00023037001353A21200084
:1029600032F0B4FA061E05D0013034F095FC8046F2
:102970000023337034484B4642462100FEF7BAFA32
:10298000324B1860002855D0FEF7DEF9304B186046
:10299000304B00221A700120FFF7D2F800210420EA
:1029A00002F0E2FB2C4B01221A702C4B01321A7000
:1029B0002B49264B1868FEF755FC2A4A13681B184A
:1029C0001360002D08D0214B18682900FEF74AFC3F
:1029D000244A13681B18136023491C4E3068FEF705
:1029E00041FC204D2B681B182B6030682100FEF73E
:1029F00039FC2B681B182B601C493068FEF732FC31
:102A00002B681B182B6000233B703800C0BCB946F4
:102A1000B046F8BD1649380032F0FCFC002805D05D
:102A2000C41D00239946503398468EE70420FFF7D3
:102A300087F8EAE70330FFF783F80121042002F06A
:102A400093FBE0E744C30310C08C0120BC8C012041
:102A5000B46200203B3302202F3302204D3302208A
:102A600058C30310CC60002060C3031074C303106C
:102A700050C30310F0B5DE4657464E464546E0B516
:102A8000A04CA5448346A04932F0C4FC00282AD0BB
:102A9000082398468044073B0593BC23FF330493E7
:102AA0002F21404632F012FA8146002804D000233C
:102AB000037001339C46E1443A21404632F006FA65
:102AC000041E05D0013034F0E7FB0490002323708E
:102AD0008E49002002F0C6FB00230293002400264A
:102AE00000279A4619E08A49584632F093FC00289C
:102AF00006D0C31D98460023059350330493CFE7B7
:102B00000420FFF71DF89FE0FF235B009E4203D8DF
:102B100012AB9855029D01360295012000214042DA
:102B200031F054F802F028FC002002F043FB019041
:102B3000051EF2D0002002F04BFB0D28EDD00A2834
:102B4000E2D112AB00229A55012E13D0002C00D0F6
:102B500096E0002E00D1A8E053469D19AB1C1A0048
:102B60000393C0239B009A4200D277E0019B02931B
:102B70000026D2E71B782E2BE8D1029B002B00D039
:102B800098E06448059B049A4146FEF7B3F9624B0E
:102B90001860002800D194E0FEF7D6F85F4B18606B
:102BA0005F4B00221A700120FEF7CAFF00210420AB
:102BB00002F0DAFA5B4B01221A705B4B01321A7099
:102BC0005A49554B1868FEF74DFB594A13681B18B4
:102BD00013604B46002B08D04F4B18684946FEF750
:102BE00041FB534A13681B18136052494A4D286829
:102BF000FEF738FB4E4C23681B18236028684146BB
:102C0000FEF730FB23681B1823604B492868FEF74A
:102C100029FB23681B1823605346002B5CD1474ACD
:102C200006AC3B00302120002FF0FAF83A4B186830
:102C30002100FEF717FB3E4A13681B181360002F94
:102C400055D100235A461370584693239B009D4448
:102C5000F0BCBB46B246A946A046F0BD384901913A
:102C600008005044320012A92FF06AFD6B1C0D229F
:102C700001994A55033ACA54039B9A4600264CE7E9
:102C8000BB190133C0221201934210D2002F03D08E
:102C90002C4B0A22DA5501372A483818320012A97B
:102CA0002FF04EFDBF19002637E7019C35E702944F
:102CB000002632E70420FEF743FF00235A46137034
:102CC000C2E70330FEF73CFF0121042002F04CFA7A
:102CD00000235A461370B7E79AB219490E4B186889
:102CE000FEF736FA124A13681B18136097E7BAB258
:102CF0001449094B1868FEF72BFA0D4A13681B1884
:102D000013609EE7B4FDFFFF44C303108CC30310A0
:102D100050C30310C08C0120BC8C0120B462002081
:102D20003B3302202F3302204D330220C4C3031053
:102D3000CC60002060C30310F0C70310CCC30310A5
:102D4000784B0020783F002010B50400064B18682F
:102D5000FEF705F8002803D0FEF7A0FF200010BD05
:102D60000020FEF7EDFEF9E7BC8C012070B596B0AF
:102D700005001C480121FDF7EBFE1B4B6C229B5C00
:102D80004F2B01D8002419E00024132C20D8174A17
:102D9000A3009B582100143189008958144A02AEBF
:102DA0000091502130002FF03BF800213000FDF75A
:102DB000CFFE00280CD10134E7E70134272C07D8D7
:102DC0000A4BA200D0580021FDF7C2FE0028F4D023
:102DD0002B78002B02D0280016B070BD0020FEF723
:102DE000AFFEF8E7F8C303101C860120EC32041094
:102DF0000CC40310F0B59FB00400D948002117F0AF
:102E00001FFA0500D7480121FDF7A2FE002806D0D1
:102E10002378002B00D101E220001FB0F0BDD24882
:102E20000021FDF795FE0028F2D1D04B5B6ED04A11
:102E30000AAE502130002EF0F3FF00213000FDF7E4
:102E400087FE0028E4D1CB494F22300031F098FFB3
:102E50004F230022F254300031F0CCFF5022121ADE
:102E6000EB1C062B00D90AE19B00C349CB589F46B7
:102E7000C2490AA834F0B8FD0AA84F230022C25460
:102E80000021FDF765FE0028C2D1BD4BBD4A0AAE48
:102E9000502130002EF0C4FF00213000FDF758FE15
:102EA0000028B5D1012D00D1F0E0AD4808AA0021DD
:102EB00017F046F9002800D1FEE0B3480021FDF7E5
:102EC00047FE0028A4D1012D00D111E1AF4BB04A3B
:102ED0000AAD502128002EF0A3FF00212800FDF7A5
:102EE00037FE002800D093E7A04BAA4A9B5AAA4A73
:102EF000502128002EF094FF00212800FDF728FE25
:102F0000002800D084E7A54BA54A1B685021280063
:102F10002EF086FF00212800FDF71AFE002800D0C1
:102F200076E7A04BA04A1B68502128002EF078FFBE
:102F300000212800FDF70CFE002800D068E79B4B1D
:102F40001B889BB29A4A502128002EF069FF00216D
:102F50002800FDF7FDFD002800D059E7954B1B88A0
:102F60009BB2954A502128002EF05AFF00212800DC
:102F7000FDF7EEFD002800D04AE7904B1B88904AF1
:102F8000502128002EF04CFF00212800FDF7E0FD25
:102F9000002800D03CE7FEF791FA0300894A50214F
:102FA00028002EF03DFF00212800FDF7D1FD00286C
:102FB00000D02DE7FEF78EFA0300834A5021280047
:102FC0002EF02EFF00212800FDF7C2FD002800D0C2
:102FD0001EE7FEF787FA03007C4A502128002EF0F6
:102FE0001FFF00212800FDF7B3FD002800D00FE7E8
:102FF000774B1868FDF7B3FE002800D1AAE0744BA8
:103000001B68002118680BF002FD13F025FE030079
:10301000704A502128002EF003FF00212800FDF700
:1030200097FD002800D0F3E6FEF736FD03006A4A5C
:10303000502128002EF0F4FE00212800FDF788FD25
:10304000E6E666490AA834F0CFFC15E764490AA809
:1030500034F0CAFC10E763490AA834F0C5FC0BE75A
:1030600061490AA834F0C0FC06E760490AA834F0B8
:10307000BBFC01E75E490AA834F0B6FCFCE65D4AF9
:103080002B0050210AA82EF0CBFEF5E63448002391
:10309000009307AB0422FE2116F0F0FF079B564A6F
:1030A000502130002EF0BCFE00213000FDF750FD15
:1030B000002800D0ACE6F8E608AA1378517890789A
:1030C000D7781679B44652790AAE049262460392D2
:1030D000029701900091494A502130002EF0A0FE45
:1030E00000213000FDF734FD002800D090E6EAE62C
:1030F000434813F0B1FD0300424A0AAD50212800B5
:103100002EF08EFE00212800FDF722FD002800D0C1
:103110007EE63D4813F0A0FD03003C4A5021280004
:103120002EF07EFE00212800FDF712FD002800D0C1
:103130006EE6374813F090FD0300364A5021280010
:103140002EF06EFE00212800FDF702FD002800D0C1
:103150005EE6BBE630480021FDF7FAFC58E6C046C3
:10316000C862002014C403102CC403101C86012064
:1031700050C4031064C40310CC32041074C4031090
:103180001E8601201CC5031040C503103389012091
:10319000ACC503106A030000C4C50310C86000205A
:1031A000D4C50310CC600020E8C5031016330220FC
:1031B000FCC50310143302200CC603101833022080
:1031C0001CC603102CC6031040C6031054C60310BF
:1031D000BC8C012068C6031088C6031084C4031089
:1031E00098C40310BCC40310C8C40310D8C403108F
:1031F000ECC4031000C503102CC5031050C5031008
:10320000B06B00207CC50310B86B00208CC5031088
:10321000B46B00209CC5031098C603100020FEF775
:103220008FFCF9E570B504000378322B0FD93F2BE2
:1032300011D1451C154B164A995C16482FF08AFC93
:103240006378002B0BD10020FEF77AFC07E0302BCF
:1032500007D2002B05D00420FEF772FC25002800C1
:1032600070BD002B0BD0303B084A09495354651CF4
:103270002B78002BF3D10020FEF762FCEFE7034B25
:10328000034A002199542500F2E7C0461C8601201C
:103290000F0400003CC3031010B504000A4B18686B
:1032A000FDF75DFD00280AD0084B02221A70084B7A
:1032B00000221A700120FEF743FC200010BD0420FC
:1032C000FEF73EFCF9E7C046BC8C01204D330220DE
:1032D0003B33022070B504000378312B0FD93F2B0C
:1032E00011D1451C144B154A995C15482FF032FC3E
:1032F0006378002B0BD10020FEF722FC07E0302B77
:1033000007D2002B05D00420FEF71AFC2500280068
:1033100070BD313B5A425341074A08495354237800
:10332000002B07D0651C2B78002BF0D10020FEF776
:1033300007FCECE72500F6E71C86012006050000E7
:103340003CC3031030B595B005002D4B1868FDF750
:1033500006FD041E4ED12B492B4800230D22FDF7FC
:10336000C9FD274B1860002844D00021042001F03B
:10337000FBFEFA21224B18688900FDF795FFC0B2C9
:103380006B4618700A2810D01D4B1868FDF7F8FC22
:103390000121042001F0E8FE002C2BD02B78002B1B
:1033A0002BD10020FEF7CCFB27E0154B18684F23EC
:1033B0006A460A21FDF7CCFF031EE5D068460022CD
:1033C000C254124931F050FD0028DDD00F490020D1
:1033D00031F04AFD011ED7D00D482FF0BBFB0B4941
:1033E000002031F041FD011ECED00A482FF0B2FB83
:1033F0000134C9E70420FEF7A3FB280015B030BD57
:10340000BC8C0120B4C60310C08C012094C10310F1
:10341000C4C6031004C3031070B5050003783D2B28
:1034200010D03F2B2BD1441C184BDA229200995C10
:1034300017482FF08FFB6B78002B24D10020FEF76C
:103440007FFB20E0441C4378303B092B13D820003D
:1034500033F022FF0D4BDA229200985400E0013441
:1034600023781A00303A092AF9D9002B0BD1002011
:10347000FEF766FB07E00420FEF762FB03E0042092
:10348000FEF75EFB2C00200070BDC0461C860120AC
:103490003CC3031070B5050003783D2B0FD03F2BC4
:1034A00029D1441C174B6E22995C17482FF052FB10
:1034B0006B78002B23D10020FEF742FB1FE0441C59
:1034C0004378303B092B12D8200033F0E5FE0D4B3A
:1034D0006E22985400E0013423781A00303A092A09
:1034E000F9D9002B0BD10020FEF72AFB07E00420BE
:1034F000FEF726FB03E00420FEF722FB2C00200051
:1035000070BDC0461C8601203CC3031070B504008A
:103510000378312B0FD93F2B11D1451C144B154A81
:10352000995C15482FF016FB6378002B0BD1002017
:10353000FEF706FB07E0302B07D2002B05D0042056
:10354000FEF7FEFA2500280070BD313B5A42534178
:10355000074A084953542378002B07D0651C2B7861
:10356000002BF0D10020FEF7EBFAECE72500F6E7A0
:103570001C860120050500003CC3031070B5040043
:103580000378312B0FD93F2B11D1451C144B154A11
:10359000995C15482FF0DEFA6378002B0BD10020E0
:1035A000FEF7CEFA07E0302B07D2002B05D004201F
:1035B000FEF7C6FA2500280070BD313B5A42534140
:1035C000074A084953542378002B07D0651C2B78F1
:1035D000002BF0D10020FEF7B3FAECE72500F6E768
:1035E0001C860120040500003CC3031010B5002018
:1035F00001F02FFE0021012009F07EF8FEE7000017
:10360000F0B5C64600B50400624B634A1A8000223A
:103610009A7023215A5496218901596668210820FD
:10362000585401315A5401310738585401315A5411
:103630006C321B39995401323839995401321331A3
:10364000995400210FE0534B0A0152189A186F3217
:10365000002010704A005218150152199B181A3395
:10366000FF33187001310929EDDD4C4D4C490A2218
:1036700028002FF065F84B4B9C4665440023984684
:103680000026DA239B004246EA54474BEA520233B3
:10369000E81846493D322FF053F80022444BEA54D3
:1036A0000127444BEF54444BEF540133EE54434B4A
:1036B000E818434905222FF043F8424BE8184249E5
:1036C0000E222FF03DF8414BEE54414BEF54414B4D
:1036D000EF54414BEE54414BEE540133EE54404B0A
:1036E0004246EA5228006F303E490A322FF028F84D
:1036F00028001A30FF303C491E222FF021F82B0001
:1037000080333A4A116819609188998092799A7148
:1037100029004D31FF31364B0A00C1CBC1C243CB2A
:1037200043C2196811609B88938028009130314909
:1037300009222FF005F828008030FF302E4917228B
:103740002EF0FEFF280001F0FFFE05002B480021AF
:1037500016F0A2F903280ED0002C18D0A61CA378CE
:10376000002B11D1002D0BD10420FEF7E9F9300018
:1037700080BCB846F0BD2148002116F0BBFDEBE748
:103780000020FEF7DDF9F2E7002DF0D1ECE726008E
:10379000EDE7C0461C8601207A56000033890120DF
:1037A000C8C60310E9FCFFFF6A030000D4C603107B
:1037B000BD0300000E0400000F04000061040000BF
:1037C00014C70310B20400001CC703100305000057
:1037D00004050000050500000605000007050000BF
:1037E0000A0500002CC7031038C7031058C7031080
:1037F00060C7031080C703108CC70310C862002085
:1038000070B504000378332B0FD93F2B11D1451C21
:10381000264B274A995C27482FF09CF96378002BA8
:103820000BD10020FEF78CF907E0302B07D2002BDC
:1038300005D00420FEF784F92500280070BD322B46
:103840002CD01FD8312B24D007D8002B01D0302BFF
:1038500003D1164B164A00219954144B144A9A5C12
:10386000531E9A41D2B20821062007F01FFA23788E
:10387000002B18D0651C2B78002BDED10020FEF722
:103880005FF9DAE7332BE8D1084B094A0321995451
:10389000E3E7064B064A01219954DEE7034B044A4D
:1038A00002219954D9E72500E5E7C0461C8601208E
:1038B000070500003CC3031070B504000378312BEA
:1038C0000FD93F2B11D1451C144B6B22995C144826
:1038D0002FF040F96378002B0BD10020FEF730F970
:1038E00007E0302B07D2002B05D00420FEF728F983
:1038F0002500280070BD313B5A425341074A6B21D5
:1039000053542378002B07D0651C2B78002BF0D163
:103910000020FEF715F9ECE72500F6E71C860120EC
:103920003CC3031070B5040003783D2B0DD03F2B32
:103930001ED1451C114912482FF00CF96378002B59
:1039400014D10020FEF7FCF810E0451C0B4E50226D
:103950002900300031F014FA0A4B9C4666440023DB
:10396000094AB35463700020FEF7EAF8280070BDDE
:103970000420FEF7E5F82500F8E7C046D9890120C4
:1039800004C3031043FCFFFF0D04000070B50400E6
:103990000378302B08D0312B14D0002B0CD004200E
:1039A000FEF7CEF8250005E0451CFEF723FB2B783B
:1039B000002B03D0280070BD0500F6E70020FEF7BD
:1039C000BFF8F7E7451CFEF7A9FB6378002BF1D1A0
:1039D0000020FEF7B5F8EDE710B50400054801F04A
:1039E000B3FD2378002B01D0200010BD0020FEF78E
:1039F000A7F8F9E71C860120F0B5D6464F464646A3
:103A0000C0B5040006783200303A092A7DD8160085
:103A1000451C43783D2B26D03F2B72D1851C404B53
:103A200052009219110152189B181A33FF331B7858
:103A3000002B14D011001931FF31394BC918013155
:103A4000320192196832D218073236482FF082F8C4
:103A5000A378002B5DD10020FEF772F859E0042016
:103A6000FEF76EF855E0851C8378002B32D02C21B0
:103A7000280031F02BFA00283FD0431C9946002340
:103A8000984603707700BF193B01FF1838001930C2
:103A9000FF30234B9A46504401303222290031F046
:103AA0006FF957444C37FF3743463B7033019E193B
:103AB00030006830504407301022494631F060F938
:103AC000330053447F3342461A70A2700020FEF741
:103AD00037F81EE0124A73009B1919015B18D318BE
:103AE0001A33FF330021197033019B19D2186F323A
:103AF00011700020FEF724F80BE00430FEF720F8E8
:103B000007E00420FEF71CF803E00420FEF718F895
:103B100025002800E0BCBA46B146A846F0BDC04624
:103B20001C8601206CC2031070B5040003783D2B85
:103B30000DD03F2B1FD1451C114912482FF00AF818
:103B40006378002B15D10020FDF7FAFF11E0451C2A
:103B50000B4E50222900300031F012F90A4B9C46DE
:103B600066440023EF229200B35463700020FDF7F7
:103B7000E7FF280070BD0420FDF7E2FF2500F8E70D
:103B80002C8A012004C30310F0FBFFFF10B50400D2
:103B9000104B1868FDF7E3F8002804D00E4B0F4ACD
:103BA0009B5C002B04D10420FDF7CAFF200010BD50
:103BB0000B4B02221A700B4B00221A700A49054B5C
:103BC00018680232FDF7C4FA084A13681B1813601C
:103BD000ECE7C046BC8C01201C8601200F040000CD
:103BE0004D3302203B330220E8320410CC60002029
:103BF00070B5040003783D2B0DD03F2B1FD1451C21
:103C0000114912482EF0A6FF6378002B15D1002031
:103C1000FDF796FF11E0451C0B4E502229003000A5
:103C200031F0AEF80A4B9C4666440023EF22920026
:103C3000B35463700020FDF783FF280070BD04209B
:103C4000FDF77EFF2500F8E78889012004C30310F3
:103C500094FCFFFF70B5040003783D2B0DD03F2B83
:103C60001ED1451C124913482EF074FF6378002BB7
:103C700014D10020FDF764FF10E0451C0C4E5022CB
:103C80002900300031F07CF80B4B9C466644002341
:103C90000A4AB35463700020FDF752FF280070BD3C
:103CA0000420FDF74DFF064B00221A702500F5E7B2
:103CB0003389012004C30310E9FCFFFF6703000000
:103CC000B875002070B5040003783D2B0DD03F2B54
:103CD0001CD1451C104911482EF03CFF6378002B85
:103CE00012D10020FDF72CFF0EE0451C0A4E4022A9
:103CF0002900300031F044F8233E00236322B354FE
:103D000063700020FDF71CFF280070BD0420FDF744
:103D100017FF2500F8E7C0463F86012004C30310C3
:103D2000F0B5D6464F464646C0B596B00400037877
:103D30003D2B47D03F2B59D1451CFCF757FC0600C3
:103D40000F00304B304A91469846985EC1173C228E
:103D500000232EF065FC80197941029003910DAB90
:103D60009A46190002A833F09FFB284A53462021A7
:103D700005A832F0F5FC43464A469B5E98463C2136
:103D800018002EF08DF881464346DA1798185040F7
:103D900080B23C212EF084F80B001D4A1278002AD4
:103DA0000ED01C4A1C48019200964A4605A92EF0E6
:103DB000D1FE6378002B1DD10020FDF7C1FE19E074
:103DC000164AEFE7451C0A220021280031F092FC38
:103DD00000236370002805D0FCF776FF0020FDF774
:103DE000AFFE07E00420FDF7ABFE03E00420FDF783
:103DF000A7FE2500280016B0E0BCBA46B146A8468A
:103E0000F0BDC0461C8601200A050000BCC7031097
:103E100024330220A4C70310D0C70310ACC703107B
:103E2000F0B5C64600B5040003783D2B1DD03F2BEE
:103E300054D1461C2D4B2E4A9D5E3C2128002EF06D
:103E40002FF807B2EB17ED185D40A8B23C212EF019
:103E500027F80A00274839002EF07CFE6378002BF3
:103E600040D10020FDF76CFE3CE0461C43782B2B34
:103E700025D02D2B27D0B0460125404633F00CFA33
:103E800007003A21404631F021F8002820D00130C7
:103E900033F002FA3B01DB1B9B001818454300235B
:103EA0006370D2239B00EA18D223DB009A4211D818
:103EB0000E4B0F4A9D520020FDF742FE12E0831C7C
:103EC00098460125D9E7831C984601256D42D4E721
:103ED0000020DFE70420FDF733FE03E00420FDF7B8
:103EE0002FFE2600300080BCB846F0BD1C860120A5
:103EF0000A050000F4C7031070B5050003783D2BD8
:103F00000ED03F2B69D1441C374B596E37482EF0E9
:103F100021FE6B78002B64D10020FDF711FE60E0DC
:103F2000441C200030F094FF050000E001342378A9
:103F3000303B092BFAD92C4B5B6EAB4249D0962310
:103F40005B019D421DD029DC96239B009D4218D029
:103F50000CDC2D3BFF3B9D4213D096339D4210D08D
:103F60006E2D0ED00420FDF7EBFD3AE09623DB002A
:103F70009D4206D096231B019D4202D01C4B9D42C0
:103F8000F0D10020FDF7DCFD002001F062F92900EE
:103F9000002001F005F9144B5D6622E0E1231B02CD
:103FA0009D42EED00CDC9623DB019D42E9D09623A6
:103FB0001B029D42E5D096239B019D42D2D1E0E7B2
:103FC00096235B029D42DCD0E1235B029D42C9D176
:103FD000D7E70020FDF7B4FD03E00420FDF7B0FDB6
:103FE0002C00200070BDC0461C8601203CC303107D
:103FF000C602000070B5050003783D2B0FD03F2BA3
:1040000021D1441C134B144A995A14482EF0A2FD96
:104010006B78002B1BD10020FDF792FD17E0441CAC
:10402000200033F039F90B4B0B4A985200E0013471
:1040300023781A00303A092AF9D9002B07D1002039
:10404000FDF77EFD03E00420FDF77AFD2C00200043
:1040500070BDC0461C8601206A0300003CC30310EB
:1040600070B5040003783D2B0DD03F2B1CD1451CAF
:10407000104911482EF06EFD6378002B12D10020FC
:10408000FDF75EFD0EE0451C0A4E2022290030009F
:1040900030F076FE023E00232222B35463700020EB
:1040A000FDF74EFD280070BD0420FDF749FD2500F9
:1040B000F8E7C0461E86012004C30310F0B597B090
:1040C000050003AC4C22002120002EF033FB244BD2
:1040D00000221A60234B2448210016F081F8041EA8
:1040E00018D122496846FCF72FFB009E019F1E4B0A
:1040F0001F4A9B58012B1ED130003900FCF72AF9CA
:10410000002818D10130002140422FF05FFD01F05E
:1041100033F9ECE70420FDF713FD1EE053231548A7
:1041200031002EF017FD0120002140422FF04EFDFE
:1041300001F022F934000A4B1B68A3420ADD661C19
:10414000620112190C4BD2180C4B1B5D002BE5D0F1
:104150004F23E4E70020FDF7F3FC280017B0F0BD83
:10416000002C0020F90B0010C8620020983A0000D3
:104170006808000004C80310042C00201C2F002035
:1041800070B5040003783D2B30D03F2B76D1451C11
:104190003D4E2933F15C3D482EF0DCFC6923F35C95
:1041A000012B19D0022B12D0002B1AD14E21002046
:1041B00001F013F8344B6A22995C35482EF0CAFCA2
:1041C0006378002B5ED10020FDF7BAFC5AE04F2146
:1041D000002001F002F8EDE74521002000F0FDFF8E
:1041E000E8E73F21002000F0F8FFE3E745782B00E7
:1041F000353B032B2AD80126A07830F0F1FD452865
:1042000004D025DB4E38012800D90026E378313B65
:10421000012B2ED8002E2CD0303D1B4B68229D54F4
:10422000A07830F0DDFD4E2814D04F2817D0452857
:104230001AD0E278303A144B6A215A54251D23795A
:10424000002B1FD10020FDF77BFC1BE00026D3E7ED
:104250000026DBE70C4B692200219954E9E70A4B61
:10426000692202219954E4E7074B692201219954FC
:10427000DFE70420FDF764FC250003E00420FDF7E0
:104280005FFC2500280070BD1C86012010C80310AB
:104290003CC3031070B5040003783D2B0DD03F2BB9
:1042A0001ED1451C114912482EF054FC6378002B96
:1042B00014D10020FDF744FC10E0451C0B4E5022A9
:1042C0002900300030F05CFD0A4B9C466644002318
:1042D000094AB35463700020FDF732FC280070BD1A
:1042E0000420FDF72DFC2500F8E7C046CE8A01200A
:1042F00004C303104EFBFFFF0205000070B505006C
:1043000003783D2B11D03F2B36D1441C1D4B6C2222
:10431000995C01329A5C1C482EF01CFC6B78002BD7
:104320002ED10020FDF70CFC2AE0461C1749300076
:1043300033F0B8FB002E0ED000280CD0441C300007
:1043400032F0AAFF0F4D6C23E854200032F0A4FF96
:104350006D23E85405E00420FDF7F2FB2C000FE08C
:10436000013423781A00303A092AF9D9002B07D1F1
:104370000020FDF7E5FB03E00420FDF7E1FB2C0046
:10438000200070BD1C86012014C803101CC8031037
:1043900070B5040003783D2B0DD03F2B1ED1451C7A
:1043A000114912482EF0D6FB6378002B14D100205F
:1043B000FDF7C6FB10E0451C0B4E502229003000D3
:1043C00030F0DEFC0A4B9C4666440023094AB35495
:1043D00063700020FDF7B4FB280070BD0420FDF7DA
:1043E000AFFB2500F8E7C0467D8A012004C3031017
:1043F0009FFBFFFF0205000070B5040003783D2B12
:104400000FD03F2B23D1451C144B154A995C1548FE
:104410002EF0A0FB6378002B1DD10020FDF790FB50
:1044200019E0451C43781A00303A012A03D90420C8
:10443000FDF786FB0FE0313B5A425341074A0849DA
:104440005354002343700020FDF77AFB03E004205F
:10445000FDF776FB2500280070BDC0461C860120B4
:10446000030500003CC3031070B504000378312B32
:1044700025D03F2B07D0302B14D00420FDF760FB54
:104480002500280070BD451C174BA122D200995C65
:1044900016482EF05FFB6378002BF2D10020FDF769
:1044A0004FFBEEE7104BA122D20000219954451C8E
:1044B0004378002BE5D10020FDF742FBE1E7451CE6
:1044C00001F074F800280BD0074BA122D200012183
:1044D00099546378002BD4D10020FDF731FBD0E74D
:1044E0000430FDF72DFBCCE71C8601203CC30310F4
:1044F000F0B5D6464F464646C0B582B004000378B4
:104500003D2B1FD03F2B0DD02D2B00D1B1E004202F
:10451000FDF716FBA046404602B0E0BCBA46B146E5
:10452000A846F0BD431C984601F096F80100574B91
:1045300018002EF00FFB6378002BECD10020FDF764
:10454000FFFAE8E7431C98465149002000F08AFE34
:104550000027002399460025019300269A463DE056
:10456000012E10D04B46002B29D14A4B9A452AD810
:10457000494B0A2251465A5401239C46E2440023E7
:10458000019300264FE0019B2E2BEBD14B46002BD5
:1045900010D15346002B08D001235B429C46E244D5
:1045A00025000023019300263DE025005646002308
:1045B000019338E04D4600230193002609E00023D3
:1045C0000193002605E0A14600230193002600E0A8
:1045D000A14601378023DB019F4228D8002D26D138
:1045E0000120002140422FF0F1FA00F0C5FE00202A
:1045F00000F0E0FD041EF1D0002000F0E9FD0D28E0
:10460000ECD00A28ACD0002E00D1019001364B46E8
:10461000002BDED11F4B9A45DAD81F4B52469854D7
:1046200001239C46E2444B46002BD7D0D1E71A4BDE
:10463000002251465A544B46002B01D1002906D185
:104640004B46002B10D10420FDF77AFA63E712489D
:1046500000F0C2FF0028F3D0104851462EF07AFA3D
:104660000020FDF76DFA56E70D480E492EF072FA5C
:10467000E9E7431C984600F0E1FF6378002B00D087
:1046800049E70020FDF75CFA45E7C04620C8031063
:1046900030C80310FE0F0000782F002068C80310F8
:1046A00080C80310FF0F00007047704770B5050009
:1046B000FDF743FC2B78002B00D170BD2900412071
:1046C000FCF72AFAD1490222280030F0D7FB002853
:1046D00003D00420FDF734FAEFE780267600CC4CB7
:1046E00032002900200030F04BFB0023A355AC1C06
:1046F000200030F07FFB0600AB78002B03D10020B8
:10470000FDF71EFAD9E72000FDF717FC06E0601C54
:10471000FEF72CFB04002000FDF70FFC2378002B94
:10472000CBD0BC490122200030F0A8FB0028EED0FD
:10473000B9490422200030F0A1FB00284FD0B7492E
:104740000322200030F09AFB00284DD0B449032208
:10475000200030F093FB00284BD0B2490522200006
:1047600030F08CFB002849D0AF490522200030F002
:1047700085FB002847D0AD490522200030F07EFBA4
:10478000002845D0AA490522200030F077FB0028F8
:1047900043D0A8490322200030F070FB002841D00C
:1047A000A5490122200030F069FB00283FD0A34931
:1047B0000122200030F062FB00283DD1022E3BD9BF
:1047C000607830F00DFB01009D4B180030F07EFB4F
:1047D000002831D0A01CFDF737FF04009BE7201D07
:1047E000FFF7D4F9040096E7E01CFFF785FB04000F
:1047F00091E7E01CFFF7C4FC04008CE7601DFFF7A5
:104800005DFC040087E7601DFFF72AFC040082E7D7
:10481000601DFFF757FA04007DE7601DFFF780FA7F
:10482000040078E7E01CFFF7FBFA040073E7601C64
:10483000FDF710FE04006EE782490222200030F0EE
:104840001DFB002802D1032E00D1C5E07E490222C3
:10485000200030F013FB002800D1C2E07B49012288
:10486000200030F00BFB002804D16378303B092B8B
:1048700000D9BBE076490222200030F0FFFA002880
:1048800004D1A378303B092B00D8B4E07149012250
:10489000200030F0F3FA002800D1B1E06E49042284
:1048A000200030F0EBFA002800D1FFE06B49032232
:1048B000200030F0E3FA002800D1FCE0684B694AA0
:1048C0009B5A002B0CD068490122200030F0D6FA08
:1048D000002805D16548FCF795FD002800D0EFE0E1
:1048E00063490222200030F0C9FA002800D1ECE030
:1048F00060490222200030F0C1FA002800D1E9E02E
:104900005D490322200030F0B9FA002800D1E6E02A
:104910005A490322200030F0B1FA002800D1E3E028
:1049200057490222200030F0A9FA002800D1E0E027
:1049300054490122200030F0A1FA002800D1DDE026
:1049400051490122200030F099FA002800D1DAE024
:104950004E490222200030F091FA002800D1D6E022
:104960004B490222200030F089FA002800D1D3E020
:1049700048490222200030F081FA002800D1D0E01E
:1049800045490222200030F079FA002800D1CDE01C
:1049900042490122200030F071FA002800D1CAE01B
:1049A0003F490122200030F069FA002800D1C7E019
:1049B0003C490222200030F061FA002807D03A4931
:1049C0000222200030F05AFA002800D0BDE0A01CDE
:1049D000FEF7B8FC04009EE6A01CFDF73DFF0400B6
:1049E00099E6A01CFEF7B0F9040094E6601CFEF7FF
:1049F000ABF904008FE6A01CFEF7FEFF04008AE678
:104A0000601CFEF749FC040085E6C046ACC80310F4
:104A1000B8750020B0C80310B4C80310BCC8031098
:104A2000C0C80310C4C80310CCC80310D4C80310F6
:104A3000DCC80310E4C8031034150410FCE40310B0
:104A4000E8C80310ECC80310F0C80310982704103E
:104A5000F4C80310F8C80310FCC8031004C90310FD
:104A60001C8601206A03000090270410D031022028
:104A700008C903100CC9031010C9031014C903108E
:104A800018C9031094C403101CC9031020C90310D3
:104A900024C9031028C903102CC90310802704104F
:104AA000F8DD031030C9031034C90310201DFDF7D1
:104AB000E1FF04002FE6E01CFDF736FF04002AE6C4
:104AC000601CFDF76DFC040025E6A01CFEF7A4FCAD
:104AD000040020E6A01CFEF7DDFC04001BE6E01C41
:104AE000FFF788FA040016E6E01CFFF781F80400DF
:104AF00011E6A01CFEF716FF04000CE6601CFEF792
:104B000079F9040007E60134FDF71AF803E6A01C62
:104B1000FEF73CFF0400FEE5A01CFEF75DFF04006D
:104B2000F9E5A01CFEF76CFE0400F4E52000FEF79A
:104B300067FD0400EFE5601CFDF7BEFE0400EAE53A
:104B4000601CFEF7C7FB0400E5E54A49012220008E
:104B500030F094F9002851D047490122200030F06C
:104B60008DF900284FD045490222200030F086F907
:104B700000284DD042490322200030F07FF9002860
:104B80004BD040490322200030F078F9002849D06A
:104B90003D490422200030F071F9002847D03B49FC
:104BA0000422200030F06AF9002845D03849042258
:104BB000200030F063F9002843D03649022220005B
:104BC00030F05CF9002841D033490522200030F054
:104BD00055F900283FD031490322200030F04EF92A
:104BE00000283DD02E490322200030F047F900284C
:104BF0003BD1E01CFFF77CFC04008CE5601CFEF759
:104C000085FC040087E5601CFEF7B8FC040082E523
:104C1000A01CFFF7F1FB04007DE5E01CFEF702FBA2
:104C2000040078E5E01CFEF77FFF040073E5201D1B
:104C3000FFF7AEFB04006EE5201DFFF72BFB040021
:104C400069E5201DFFF75AFB040064E5A01CFEF790
:104C500033FE04005FE5601DFEF7FCFF04005AE52B
:104C6000E01CFFF701FC040055E50420FCF768FF99
:104C700051E5C04638C90310C43204103CC90310C2
:104C800040C9031044C9031048C9031050C9031098
:104C900058C9031060C9031064C903106CC903101C
:104CA00070C9031070B5002000F084FA002800D10C
:104CB00070BD002000F08CFA040003000A2821D007
:104CC0000D281FD008282ED07F282CD02F2B3DD088
:104CD0002300203BDBB25E2BEAD8314B1B68FF2B55
:104CE00006D85A1C2E490A602E49CC5400238B54F6
:104CF0002D4B2E4A9B5C002BDAD02100002000F0C7
:104D00006CFAD5E7284B294A9B5C002B08D1254C2F
:104D10002000FFF7CBFC00232370214A1360C7E774
:104D2000FCF7BCFBF3E71E4A1268002ACED0013A1A
:104D30001B4B1A601B4B002199541B4B1B4A9B5C5D
:104D4000002BB5D01A482DF005FFB1E7144B1B68B6
:104D5000012BBDD1134B187830F042F84128B7D160
:104D6000144B1B78002BB3D00F4B104A9B5C002BCD
:104D700011D102220F490B4CFF32200030F000F815
:104D8000002580235B00E5542000FFF78FFC257091
:104D9000034B1D608CE708482DF0ACFEE9E7C046E8
:104DA000B85F0020B45E00201C8601200E040000C5
:104DB000B8C20310B875002074C9031010B50120E3
:104DC000002140422EF002FF00F0D6FAFBF778FEF9
:104DD0004B4B19784B4B1B68994220D1FBF760FF76
:104DE000FCF77AFF484B494A9B5C032B1FD0444B8E
:104DF0001B78022B2AD021D8002B24D0012B24D1C0
:104E0000FFF750FF3E4B1B78012B1ED1404B18681B
:104E1000FBF7A5FF002818D1FCF740FF15E0532051
:104E2000FBF7BAFA364B1A78364B1A60D6E7FCF71E
:104E300061FB0028DBD00020FEF7D8FB032B04D158
:104E4000FDF706FA01E0FFF72DFF10BD002000F08E
:104E5000B1F9002813D12E4B1868FCF71BFA002873
:104E600010D0002000F0A6F900280BD1FCF7EEFBD3
:104E7000431CF0D0C1B2002000F0CDF9EBE7FCF705
:104E800041FBE8E7234B1B78032B23D01E4B1F4A23
:104E90009B5C002B15D0FCF72DFB002811D01A4B82
:104EA0001A4A9B5C022B25D0032B26D0012B08D15C
:104EB000134B01221A700020FCF742FE154B002212
:104EC0001A70134B1868FBF74AFF0028BDD1FCF796
:104ED000E5FEBAE7FBF738FF0F4B1B689842D5D9C0
:104EE000074B01221A700020FCF72AFE094B002212
:104EF0001A70CBE7FCF7D2FEE3E70020FEF776FB63
:104F00004D330220000F00201C8601200705000001
:104F1000BC8C01203C3302208071002070B5002041
:104F20002EF0FAFA2DF022FE00F01EFA01E0002C1D
:104F30000ED10120002140422EF048FE2EF0D2FA80
:104F4000041EF4D02EF0D6FA0028F0D00024EEE7AC
:104F5000082005F017FFD024240680235B0063623D
:104F6000A361092005F00EFF80239B006362A3610B
:104F70000A2005F007FF8023DB006362A36100F0D5
:104F800053FA5B4C200000F0ADFA2288594B9A424C
:104F90005CD1574C584BE25C584B1A70616E002044
:104FA00000F0FEF86823E15C0233E25C013BE35C65
:104FB000002000F0FDF80021002000F0FAF86B233B
:104FC000E05CFCF7B3FF4E4BE25C4E4B511E8A4156
:104FD000D2B20821062005F079FE4B4BE35C002B92
:104FE00010D00120002140422EF0F0FD00F0C4F965
:104FF000002000F0DFF80028F3D0002000F0E8F8EF
:105000000D28EED112F0ACF811F0AAFF3F4840494C
:1050100015F071F8364B9B78002B1DD0344B2322B2
:105020009B5C002B16D03B4D0024032C14DC3A492A
:1050300008002138394B2A0012F055F83348002176
:1050400014F02AFD032807D00134EEE70020FEF714
:10505000D7FA9EE70025E7E7254B314A995A002900
:105060002BD12A48002114F017FD032803D0204B30
:105070009B78002B25D12548002114F00DFD032835
:1050800023D01B4B8222D2009B5C002B2BD080268E
:105090007600244C244D3200210028002FF070FEB1
:1050A0000023AB55214B9C466444214BE35C002B11
:1050B00014D11D48FFF7FAFA70BD1E48FCF708F836
:1050C000CFE70420FCF73CFDF6E70021023000F0BA
:1050D0004BF808F0A1F8FBF777FDD2E71249164824
:1050E0002DF038FDE5E70020FCF72AFDE4E7C04697
:1050F0001C8601207A5600000F0400004A3302206B
:10510000070500009905001003050000C862002093
:105110004011A100040040003F860120102700003C
:105120006A0300002C8A0120B45E0020F0FBFFFF20
:105130000E040000D031022004C3031010B5FFF7A5
:10514000EDFEFFF73BFEFCE700B583B001226B46A6
:10515000D91D2EF09DFF002803D06B46D87903B0EF
:1051600000BD01204042FAE7014B19547047C04688
:105170002C8C012010B50400062801D002280AD189
:1051800000202EF059FF062C02D08007C00F04E04B
:105190000123184001E0014B185C10BD2C8C01204C
:1051A00000B583B069462EF053FF009803B000BDF0
:1051B0007047704710B52EF05DFF431E9841C0B296
:1051C00010BD10B52FF010F8431E9841C0B210BDAD
:1051D00010B5FFF7B9FFC0B210BD30B583B0040001
:1051E0000D0007E020002EF073FF01200021404257
:1051F0002EF0ECFC2000FFF7E4FF0028F2D06B4615
:10520000D91D0D70012220002EF0C8FF20002EF0C5
:105210005FFF03B030BD30B583B004000D0007E080
:1052200020002EF055FF0120002140422EF0CEFC40
:105230002000FFF7C6FF0028F2D06B46D91D0D7085
:10524000012220002EF0AAFF20002EF041FF03B023
:1052500030BD10B52EF03CFF0120002140422EF061
:10526000B5FC10BDF0B5C64600B50500884608007F
:105270002FF0C0FD07000600002401E0A64211D96E
:10528000434619193A1B28002EF088FF24182800DD
:105290002EF01EFFA642F1D90120002140422EF03F
:1052A00095FCEBE780BCB846F0BD10B582B00400B9
:1052B000002909D102B010BD20002EF009FF012005
:1052C000002140422EF082FC2000FFF77AFF0028E8
:1052D000F2D06B46D91DF3230B70012220002EF073
:1052E0005DFF20002EF0F4FEE4E77047F8B50700FC
:1052F0000D00002401E0A6420ED939192E002A1B08
:1053000000202EF04BFF2418A542F4D901200021E3
:1053100040422EF05BFCEEE7F8BD10B500202EF009
:10532000D7FE10BD70B504000D0000202EF0A2FEC7
:10533000002801D1002070BD2A00210000202EF09D
:10534000A7FE024B00221A70F5E7C0463333022055
:1053500070B504000D00034805F09AFA0300290017
:10536000200098475542000010B5024801212DF059
:1053700099FB10BD100F002010B5FFF7CEFF034BB7
:105380001978002011F00CFE10BDC0463333022006
:1053900001235940C9B2014B197070473B330220B9
:1053A00010B50A784B781B0213438A7812041A430B
:1053B000CB781B0613439622D200934200D010BD37
:1053C00000210800FFF7C4FF0020704710B58131AD
:1053D000FF310803EFF3108472B68021490136F0E3
:1053E0008BFD84F31088002010BD10B50C0019004F
:1053F0008134FF3420038018EFF3108472B6029AD0
:1054000036F052FD84F31088002010BD10B518004E
:1054100009038918034B9C466144029A2DF090F9C8
:10542000002010BD0000181370B5224C542200213A
:1054300020002DF07FF95422002120002DF07AF970
:105440001D4B63601D4BA3601D4BE3601D4B23612F
:1054500001236361FF33A36180225201E261802254
:1054600022621C3A6262A362F03BE362164B636302
:10547000164BA363164BE3631648210004F0A6FB0A
:10548000002800D170BD14482DF034FB094D114C9B
:105490002900200004F096FB2900200004F096FB70
:1054A000011E03D00D482DF055FBEBE70C482DF005
:1054B00021FBE7E72C6200200D540010EB53001095
:1054C000CD530010C9530010247800202477002009
:1054D000147700202479002078C9031094C90310A0
:1054E000B0C9031030B5C7B004000C22002103A8D6
:1054F0002DF020F906AB03930F4A1049104803AB77
:105500000093012304F06EFB002803D00024200048
:1055100047B030BD0B4D094909482B00220004F06B
:10552000A1FBA84205D000240449054804F07EFBF5
:10553000EDE70124F8E7C04644380410C0760020A7
:10554000247900200C05000030B5C7B004000C22FF
:10555000002103A82DF0EEF806AB039304230F4AB5
:105560000F49104803AD0095FF3304F03BFB0028C2
:1055700003D00024200047B030BD0B4D0849094836
:105580002B00220004F08EFBA84205D00024044921
:10559000044804F04BFBEDE70124F8E7443804101D
:1055A000C0760020247900200C05000000B595B0DD
:1055B0000749084801AA04F011FB002802D0002086
:1055C00015B000BD0298431E9841C0B2F8E7C0462E
:1055D0003C3804102479002030B5C7B005000C0019
:1055E0000C22002103A82DF0A5F806AB03930F4A67
:1055F0000F49104803AB00930F4B04F0F3FA002857
:1056000003D00024200047B030BD094909482300D9
:105610002A0004F047FBA04205D0002404490548B5
:1056200004F004FBEEE70124F8E7C0463C38041020
:10563000C0760020247900200305000010B504493D
:10564000044804F0C7FA43425841C0B210BDC046F6
:105650003C3804102479002000B595B0054906486F
:1056600001AA04F0BBFA002802D0002015B000BD4A
:105670000298FBE73C3804102479002010B586B06E
:105680000C22002103A82DF055F80C4B03930C4B72
:105690001C78002C03D00024200006B010BD094A5D
:1056A00009490A4803AB0093012304F09BFA002840
:1056B000F2D1034B01221A700134EDE7246100207E
:1056C000323302203C380410D060002024790020BE
:1056D00010B502000B0006490978002904D00549DD
:1056E000054804F0BFFA10BD01204042FBE7C04668
:1056F00032330220D06000202479002010B5064B00
:105700001B78002B00D110BD0449054804F08EFA27
:10571000014B00221A70F6E732330220D0600020DD
:1057200024790020F0B5C64600B588B080460E004A
:105730001A4B002B0AD0102104A82FF00EFB73087F
:105740009C46834200D3844600251DE0144B0493FD
:10575000144B05930820F2E76846134B6946D0CBFB
:10576000D0C11B680B6004AB595D930019410F2336
:1057700019406B009B1A01335B00415C4046C152EB
:105780000132012AE8D90135AC4501D90022F8E7F8
:105790006346580008B080BCB846F0BD5B4D0310AE
:1057A0000123456789ABCDEFC0C90310004870479E
:1057B000A4380410004870475838041070B5002809
:1057C0000ED003281CD0042827D8154B8000C558BC
:1057D00028002FF00FFB202800D92020002319E0FB
:1057E0000F4B19680F4802222CF0AAFF012001304C
:1057F000400080B2C0239B0003430B48038070BD70
:1058000008482021FFF78EFFF1E7EC5C0133064AE0
:1058100059008C529842F8D8E9E70020EFE7C046DB
:10582000280F0020DA5B0020D85B002030B5036829
:105830000A68934204D049688B4207D0002030BDEB
:1058400045684C68A542F6D10120F8E743689A42C2
:1058500001D00020F3E70120F1E730B5002306E096
:105860009D00441922684D596A4022600133022B81
:10587000F6DD30BD03681B0DE022D20013420FD0CD
:1058800043680A6893420DD08068496888420BD00B
:105890008B420BD0824201D0002002E0012000E0C8
:1058A000002070470120FCE70120FAE70120F8E71B
:1058B00082B00190030001AA01E01A001B68002BCE
:1058C00004D013688B42F8D1012000E0002002B020
:1058D000704702002832836A01E01A001B68002B1F
:1058E00004D013688B42F8D11B6813607047836A39
:1058F0000B608162704700000048704701000200A1
:1059000010B5FFF7F9FF000C10BD10B5FFF7F4FF5D
:1059100080B210BDC36E0366704710B50023836567
:10592000C365FFF7F7FF10BD10B50400406D081AFE
:10593000E16E40182CF0DCFAA36D8B4208D9646E3E
:10594000C808235C07221140063A8A4013432354B7
:10595000002010BD30B5CB001BD5194C03681A00D0
:105960004A40144217D09A059215013213D0144CB4
:105970000C40144D1D40144A2A4394420BD00C0D88
:10598000E022D20022408025ED00AA4207D000206C
:1059900004E00E4CE2E700230360012030BD890AD9
:1059A0008905890D9A0A9205920D8A4205D364B23F
:1059B000A4021B1903600020F0E70020EEE7C046B8
:1059C00000FCFF7F00FC0F000000F04F00FC0F7098
:1059D0008B059B1501335A4253415B189B059B0D68
:1059E00004330268D31803600020704710B5836E3B
:1059F0005B6A002B0ADD88680130591C01231943BA
:105A00002CF076FA002903D0002000E0002010BD21
:105A10000120FCE7036B034A134049020B43036375
:105A20007047C046FFFDFFFF30B5036B0B4C2340B2
:105A30000B4CA1420CD08D020A4C2C432343036330
:105A4000074B994206D0136843635368836330BDA4
:105A50000024F3E700234363F8E7C046FF03008018
:105A6000FF0300000000F04F0368013303600020D3
:105A70007047000010B5C36E8B4205D9806EC368B5
:105A80009847002807DC10BD064B074A8A210748C3
:105A900049002AF0DDFF064B034A8B2103484900E9
:105AA0002AF0D6FFFCCE0310A839041000CA031058
:105AB0003CCA031010B5026B93059C0D002B01D15D
:105AC000002911DBFF235B009C4201D9002911DC76
:105AD000891801634B005B0889054A1E9141C9077B
